:020000040800F2
:1000000000800120311500088115000881150008C5
:100010008115000881150008811500080000000006
:100020000000000000000000000000008115000832
:1000300081150008000000008115000879210008E2
:1000400000000000811500088115000881150008D6
:100050008115000881150008A51300088115000806
:10006000811500085D130008F513000881150008CC
:100070008115000881150008811500088115000808
:100080008115000881150008811500080000000096
:100090000000000000000000000000001D14000827
:1000A00081150008811500088115000881150008D8
:1000B00081150008811500088115000881150008C8
:1000C00081150008811500088115000881150008B8
:1000D00081150008811500080D23000800000000AC
:1000E0008115000881150008811500080000000036
:1000F0000000000000000000000000008115000862
:100100000000000081150008811500088115000815
:1001100000000000000000000000000000000000DF
:100120008115000881150008811500088115000857
:100130008115000800000000000000000000000021
:100140000000000000000000000000008115000811
:100150008115000881150008811500088115000827
:100160008115000881150008000000000000000053
:10017000000000000000000000000000000000007F
:10018000000000000000000000000000000000006F
:0401900081150008CD
:1001A00010B5054C237833B9044B13B10448AFF3B1
:1001B00000800123237010BDEC050020000000002A
:1001C000285B000808B5034B1BB103490348AFF394
:1001D000008008BD00000000F0050020285B00083A
:1001E00001F0FF01102A2BDB10F0070F08D010F8E8
:1001F000013B013A8B422DD010F0070F42B3F6D1EC
:10020000F0B441EA012141EA014122F007047FF004
:1002100000070023F0E80256083C85EA010586EA5B
:10022000010685FA47F5A3FA87F586FA47F6A5FA97
:1002300087F68EB9EED1F0BC01F0FF0102F00702A3
:1002400032B110F8013B013A83EA010313B1F8D14E
:100250000020704701387047002D06BF354603382F
:10026000073815F0010F07D1013015F4807F02BF68
:10027000013015F4C03F0130F0BC0138704700BFB9
:1002800080B586B000AF0121022001F0C9FC002337
:100290003B7520233B610123FB7502237B7507F12E
:1002A00010031946144801F06DFB01214FF4804002
:1002B00001F0D6FC0521012001F012FD2023BB60D6
:1002C0000123BB7300233B730C237B7307F10803EB
:1002D000184601F0BBFA17233B710123FB71002381
:1002E0007B710023BB713B1D184601F04DFA00BF26
:1002F0001837BD4680BD00BF0004024080B586B0FF
:1003000000AF0121022001F08BFC00233B75082384
:100310003B610123FB7502237B7507F1100319462E
:10032000144801F02FFB01214FF4804001F098FCAC
:100330000321012001F0D4FC0823BB600123BB731F
:1003400000233B730C237B7307F10803184601F06D
:100350007DFA09233B710123FB7100237B7100238C
:10036000BB713B1D184601F00FFA00BF1837BD46A0
:1003700080BD00BF0004024080B586B000AF0121FF
:10038000012001F04DFC00233B7510233B6101234C
:10039000FB7502237B7507F110031946144801F021
:1003A000F1FA01214FF4804001F05AFC04210020B1
:1003B00001F096FC1023BB600123BB7300233B7349
:1003C0000C237B7307F10803184601F03FFA0A2358
:1003D0003B710123FB7100237B710023BB713B1D2B
:1003E000184601F0D1F900BF1837BD4680BD00BFE7
:1003F0000000024080B586B000AF0121022001F06C
:100400000FFC00233B7501233B610123FB75022395
:100410007B7507F110031946144801F0B3FA012166
:100420004FF4804001F01CFC0021012001F058FC39
:100430000123BB600123BB7300233B730C237B733D
:1004400007F10803184601F001FA06233B71012366
:10045000FB7100237B710023BB713B1D184601F02B
:1004600093F900BF1837BD4680BD00BF00040240AD
:1004700080B485B000AF78607B684CF2503202FBEC
:1004800003F3BB600023FB6002E0FB680133FB6009
:10049000FA68BB689A42F8D300BF00BF1437BD4664
:1004A0005DF8047B7047000080B582B002AF7A230C
:1004B00000933E23002200210A4802F028F90A4B4B
:1004C000009300230F224121064803F09BF9074BBC
:1004D0000093002332224121024803F093F900BF28
:1004E000BD4680BD08060020405B00084C5B00084C
:1004F00080B582B000AF01F0FDFE03461A46104BF6
:10050000A3FB0213D11A49080B4419090B46DB005F
:100510000B445B000B44D31A9BB27B60094A7B6897
:1005200052F823303B60084A7B68136040223968E8
:10053000064804F0A9FE00BF0837BD4680BD00BFD5
:10054000CB6B28AFE0040020CC0B00208C0B0020EC
:10055000B0B500AFFFF7CCFF074A084B14461D4665
:100560000FCD0FC40FCD0FC40FCD0FC495E80F00F2
:1005700084E80F0000BFB0BD4C0B00208C0B0020A6
:1005800080B58AB002AFF860B9607A60FF2300934B
:10059000FF2300220021214803F0F6FA0023FB612B
:1005A00034E00023BB612BE0FB691B017A68134434
:1005B000BA6953F82230012B1FD1194B1B68BA6955
:1005C00003FB02F2FB68134401337B61144B1B688D
:1005D000FA6902FB03F3BA6813443B617B6919B201
:1005E0003B691AB20E4B1B6818B20D4B1B681BB24D
:1005F00000930346094802F037F8BB690133BB6139
:10060000BB69032BD0DDFB690133FB61FB69032B65
:10061000C7DD00BF00BF2037BD4680BD08060020F3
:100620000C00002080B58AB002AFF860B9607A6033
:1006300000230093002300220021214803F0A4FAA4
:100640000023FB6134E00023BB612BE0FB691B014D
:100650007A681344BA6953F82230012B1FD1194B21
:100660001B68BA6903FB02F2FB68134401337B6128
:10067000144B1B68FA6902FB03F3BA6813443B612D
:100680007B6919B23B691AB20E4B1B6818B20D4B4D
:100690001B681BB200930346094801F0E5FFBB69E4
:1006A0000133BB61BB69032BD0DDFB690133FB6107
:1006B000FB69032BC7DD00BF00BF2037BD4680BDEF
:1006C000080600200C00002080B489B000AFF8605C
:1006D000B9607A600023FB614AE00023BB6141E01E
:1006E000FB691B017A681344BA6953F82230012B65
:1006F00035D1244B1B68BA6902FB03F3FA68134433
:100700007B61204B1B68FA6902FB03F3BA68134450
:100710003B611C4B1A6813465B001344DB001A460E
:100720003B69934201DB012326E03B69164A82FBC9
:1007300003125210DB17D21A7B69134981FB0301A4
:100740004910DB17C91A114813465B0013449B007C
:100750000B4450F82330012B01D101230CE0BB697D
:100760000133BB61BB69032BBADDFB690133FB615C
:10077000FB69032BB1DD002318462437BD465DF825
:10078000047B70470C00002067666666C006002088
:1007900080B489B000AFF860B9607A600023FB6173
:1007A0003BE00023BB6132E0FB691B017A68134424
:1007B000BA6953F82230012B26D11D4B1B68BA6948
:1007C00002FB03F3FA6813447B61194B1B68FA6957
:1007D00002FB03F3BA6813443B613B69154A82FB91
:1007E00003125210DB17D21A7B69124981FB0301F5
:1007F0004910DB17C91A104813465B0013449B00CD
:100800000B44012240F82320BB690133BB61BB6963
:10081000032BC9DDFB690133FB61FB69032BC0DDE1
:1008200000BF00BF2437BD465DF8047B704700BFA2
:100830000C00002067666666C006002080B582B0A6
:1008400002AF002300930023FF2200210C4803F095
:100850009BF90A2200210B4804F0E2FC0A4B1B68BA
:100860001A460A49074804F0BBFC064B00930023D4
:1008700030224121024802F0C5FF00BFBD4680BDC5
:1008800008060020400B0020D00B0020545B00081D
:1008900080B590B002AF0023009300230022002116
:1008A000914803F071F900237B6314E100233B635B
:1008B0000AE18E497A6B13465B0013449B003A6B46
:1008C000134451F82330012B40F0F780884B1B680C
:1008D0000133874A1360864B1B680C2B40F0F18074
:1008E000844B1B68002B04D0824B1B68143B814A4D
:1008F0001360814B1B6805337F4A1360002300930C
:10090000002300220021784803F03EF97B6B9BB264
:100910001A46920013449BB201339BB21AB20523CC
:1009200000933C230121704801F09EFE0023FB62EE
:100930000DE06E497A6B13465B0013449B00FA6A24
:100940001344002241F82320FB6A0133FB62FB6A57
:100950000B2BEEDD002300930023002200216248D0
:1009600003F012F90423BB6234E000237B622BE026
:100970005E49BA6A13465B0013449B007A6A1344CB
:1009800051F82330012B1CD15C4B1B687A6A02FBA7
:1009900003F30133BB60594B1B68BA6A02FB03F3D4
:1009A00001337B60BB6819B27B681AB2534B1B687A
:1009B00018B2524B1B681BB2009303464A4801F021
:1009C00053FE7B6A01337B627B6A0B2BD0DDBB6AF3
:1009D0000133BB62BA6A7B6B9A42C6DD7B6B3B62BA
:1009E00020E00B23FB6117E03B6A5A1E3F49134688
:1009F0005B0013449B00FA69134451F823103B48F1
:100A00003A6A13465B0013449B00FA69134440F8AA
:100A10002310FB69013BFB61FB69002BE4DA3B6AB5
:100A2000013B3B623B6A042BDBDCFF230093FF238B
:100A3000002200212C4803F0A7F80423BB6134E016
:100A400000237B612BE02949BA6913465B001344FC
:100A50009B007A69134451F82330012B1CD1274B9A
:100A60001B687A6902FB03F301333B61234B1B686C
:100A7000BA6902FB03F30133FB603B6919B2FB68FF
:100A80001AB21E4B1B6818B21C4B1B681BB200939A
:100A90000346154801F0E8FD7B6901337B617B6902
:100AA0000B2BD0DDBB690133BB61BA697B6B9A420A
:100AB000C6DD0F4B00221A6003E00D4B00221A60C6
:100AC00006E03B6B01333B633B6B0B2B7FF7F1AED7
:100AD0007B6B01337B637B6B172B7FF7E7AE00BF2C
:100AE00000BF3837BD4680BD08060020C006002084
:100AF000BC06002008000020D00B00200C000020C5
:100B000080B584B002AF00237B601EE0134A7B688F
:100B100052F82330012B15D1002300930023FF222C
:100B200000210F4803F030F80E4B009300233C22C5
:100B300004210B4802F066FE0B4B1B68DBB2184623
:100B400001F0E0F97B6801337B607B680B2BDDDD16
:100B500000BF00BF0837BD4680BD00BFC0060020F3
:100B600008060020605B00080400002090B585B0F6
:100B700000AF7860484B1B68484A11687A6818468D
:100B8000FFF7FEFC6420FFF773FCFFF781FE424B8A
:100B90001868424B1A68424B1B6813447A6819461E
:100BA000FFF792FD0346002B0FD13B4B1B683B4ADE
:100BB00011687A681846FFF735FD384B1A68384BCC
:100BC0001B681344354A136036E0334B1B68334AC5
:100BD00011687A681846FFF7DBFD2F4B19221A605F
:100BE0002E4B6FF008021A602B4B1B682D4A1360C6
:100BF000FFF77EFC0023FB6019E00023BB6010E0E0
:100C00002949FB689A00BB68134451F82320274800
:100C1000FB689900BB680B4440F82320BB68013394
:100C2000BB60BB68032BEBDDFB680133FB60FB683B
:100C3000032BE2DDFFF764FF1A4B1B681946786847
:100C400000F062F80446786800F098F80346E31A6A
:100C5000134A126802FB03F3154A1360114B1B6819
:100C60001946786800F050F802460D4B1B6802FBED
:100C700003F3104A13600B4B1A68074B1B689A4228
:100C800003D0084B1B68044A1360FFF7D7FD00BF71
:100C90001437BD4690BD00BF100000201400002096
:100CA0000C000020000000208C0B00204C0B0020CA
:100CB000D80B0020D40B002080B584B002AF786040
:100CC0000D4B1B68FF2B05D00B4B1B68DBB2184686
:100CD00001F018F9094B19687B680093084BFF2253
:100CE000084801F0ADF803461A46034B1A6000BFEE
:100CF0000837BD4680BD00BF04000020080000206A
:100D00006D0B00086C5B000880B487B000AF7860A2
:100D100039604FF0FF337B6100233B611EE000230D
:100D2000FB6015E03B691B017A681344FA6853F8CD
:100D30002230012B09D13A68FB681344BB60BA68C2
:100D40007B699A4201DDBB687B61FB680133FB6014
:100D5000FB68032BE6DD3B6901333B613B69032BF9
:100D6000DDDD3B68002BB8BF5B427A69D31A0133E3
:100D700018461C37BD465DF8047B704780B487B0C9
:100D800000AF786000237B6100233B611FE00023FC
:100D9000FB600023BB600EE03B691B017A681344D3
:100DA000BA6853F82230012B02D1FB680133FB6093
:100DB000BB680133BB60BB68032BEDDDFA687B6960
:100DC0009A4201DDFB687B613B6901333B613B6912
:100DD000032BDCDD7B6918461C37BD465DF8047BC0
:100DE0007047000080B5AAB000AFAE4B1B68AE4A9A
:100DF0001168AE4A12681846FFF714FCAC4B1B682A
:100E000001335A4203F0030302F0030258BF534276
:100E10007B65A84B1B68002BC0F28280A54B1B682A
:100E2000032B7DDCA34B1A68A14B1B6813445A4269
:100E300003F0030302F0030258BF53429D4A1360BC
:100E40009C4B1B689C4A52F823303B65954B1B68B2
:100E5000954A11683A6D1846FFF736FC0346002B99
:100E60002DD10023C7F8A43025E00023C7F8A03017
:100E700018E0D7F8A4301B013A6D1344D7F8A0202E
:100E800053F82220D7F8A4309900D7F8A0300B44AB
:100E90009B00A8333B4443F8A82CD7F8A03001337B
:100EA000C7F8A030D7F8A030032BE2DDD7F8A43084
:100EB0000133C7F8A430D7F8A430032BD5DD0023C5
:100EC000C7F89C3025E00023C7F8983018E0D7F821
:100ED0009C309A00D7F8983013449B00A8333B44C9
:100EE00053F8A82C7548D7F89C309900D7F898305B
:100EF0000B4440F82320D7F898300133C7F89830D6
:100F0000D7F89830032BE2DDD7F89C300133C7F8CF
:100F10009C30D7F89C30032BD5DD654A7B6D136080
:100F2000644B1B68032B40F38980624B1B68072BC3
:100F300000F384805F4B1B681A1F5D4B1B681344D2
:100F40005A4203F0030302F0030258BF5342594AC6
:100F50001360584B1B685A4A52F82330FB64514BBC
:100F60001B68514A1168FA6C1846FFF7ADFB03463F
:100F7000002B2DD10023C7F8943025E00023C7F8BB
:100F8000903018E0D7F894301B01FA6C1344D7F86E
:100F9000902053F82220D7F894309900D7F8903059
:100FA0000B449B00A8333B4443F8A82CD7F890305F
:100FB0000133C7F89030D7F89030032BE2DDD7F833
:100FC00094300133C7F89430D7F89430032BD5DD33
:100FD0000023C7F88C3025E00023C7F8883018E0DC
:100FE000D7F88C309A00D7F8883013449B00A83388
:100FF0003B4453F8A82C3148D7F88C309900D7F8E7
:1010000088300B4440F82320D7F888300133C7F8E4
:101010008830D7F88830032BE2DDD7F88C300133E5
:10102000C7F88C30D7F88C30032BD5DD204A7B6D88
:101030001360204B1B6804331E4A13601D4B1B6852
:10104000072B40F391801B4B1B680B2B00F38C800C
:10105000184B1B68A3F10802154B1B6813445A4236
:1010600003F0030302F0030258BF5342114A136016
:10107000104B1B68134A52F82330BB64094B1B68A2
:10108000094A1168BA6C1846FFF71EFB0346002B8D
:1010900040D10023C7F8843038E00023C7F88030FF
:1010A0002BE000BF10000020140000201C000020D6
:1010B00018000020CC0B00202C0500204C0B002039
:1010C0003C0500204C050020D7F884301B01BA6C89
:1010D0001344D7F8802053F82220D7F884309900A1
:1010E000D7F880300B449B00A8333B4443F8A82C2E
:1010F000D7F880300133C7F88030D7F88030032B21
:10110000E2DDD7F884300133C7F88430D7F8843073
:10111000032BC2DD0023FB671BE00023BB6712E04B
:10112000FB6F9A00BB6F13449B00A8333B4453F8FA
:10113000A82C8348FB6F9900BB6F0B4440F8232019
:10114000BB6F0133BB67BB6F032BE9DDFB6F013363
:10115000FB67FB6F032BE0DD7A4A7B6D13607A4BF4
:101160001B680833784A1360774B1B680B2B70DDC4
:10117000754B1B680F2B6CDC734B1B68A3F10C02C7
:10118000704B1B6813445A4203F0030302F003023E
:1011900058BF53426C4A13606B4B1B686B4A52F842
:1011A00023307B646A4B1B686A4A11687A6C184664
:1011B000FFF78AFA0346002B21D100237B671BE04F
:1011C00000233B6712E07B6F1B017A6C13443A6F7C
:1011D00053F822207B6F99003B6F0B449B00A83390
:1011E0003B4443F8A82C3B6F01333B673B6F032B19
:1011F000E9DD7B6F01337B677B6F032BE0DD002331
:10120000FB661BE00023BB6612E0FB6E9A00BB6E20
:1012100013449B00A8333B4453F8A82C4848FB6E6A
:101220009900BB6E0B4440F82320BB6E0133BB66B4
:10123000BB6E032BE9DDFB6E0133FB66FB6E032BFC
:10124000E0DD404A7B6D13603F4B1B680C333E4A28
:1012500013603D4B1B680F2B6EDD3B4B1B68112B46
:101260006ADC394B1B68A3F11002364B1B68134430
:10127000002B03F00103B8BF5B42334A1360324BCB
:101280001B68354A52F823303B64314B1B68314AA6
:1012900011683A6C1846FFF717FA0346002B21D164
:1012A00000237B661BE000233B6612E07B6E1B0184
:1012B0003A6C13443A6E53F822207B6E99003B6ED1
:1012C0000B449B00A8333B4443F8A82C3B6E0133EE
:1012D0003B663B6E032BE9DD7B6E01337B667B6EE9
:1012E000032BE0DD0023FB651BE00023BB6512E060
:1012F000FB6D9A00BB6D13449B00A8333B4453F82D
:10130000A82C0F48FB6D9900BB6D0B4440F82320BF
:10131000BB6D0133BB65BB6D032BE9DDFB6D013399
:10132000FB65FB6D032BE0DD064A7B6D1360064B0E
:101330001B681033044A136000BFA837BD4680BD48
:101340004C0B002018000020CC0B00205C05002076
:1013500010000020140000206C05002080B500AFB4
:10136000082000F0E5FA0346012B0FD10A4B1A685A
:101370000A4B1B681A440A4B1B689A4206DB064B51
:101380001A68074B1B68D31A034A1360082000F041
:10139000E9FA00BF80BD00BF00000020D80B00208C
:1013A0000C00002080B500AF012000F0C1FA034618
:1013B000012B14D10C4B1A680C4B1B68D1180C4B29
:1013C0001A6813469B0013445B001344994206DCE1
:1013D000054B1A68064B1B681344034A136001202F
:1013E00000F0C0FA00BF80BD00000020D40B002038
:1013F0000C00002080B500AF102000F099FA0346E1
:10140000012B04D1044B1B681846FFF755FC102034
:1014100000F0A8FA00BF80BD1C00002080B500AF1E
:10142000202000F085FA0346012B01D1FFF7DAFCFA
:10143000202000F097FA00BF80BD000080B582B088
:1014400002AF00F0D5F800F0D9FCFFF781F80020DA
:1014500000F0A0FEFEF714FFFEF750FFFEF7CAFFF4
:10146000FEF78AFF0021104801F0E2F80E4801F073
:1014700026F90E490C4802F089FAFF230093FF2356
:10148000FF220021084802F07FFB00230093002385
:1014900000220121044802F077FB034802F06EFCB1
:1014A00000BFBD4680BD00BF08060020645C000888
:1014B00080B500AFFFF7C2FFFEF7F6FF00F07EFD3C
:1014C000FCE7000080B586B000AF7860144A154B89
:1014D000D31A7B617B693B61134B1B68002B02D1E4
:1014E000114B124A1A60104B1A687B6813443A6910
:1014F0009A4207D203F09CFE03460C221A604FF07A
:10150000FF3309E0084B1B68FB60074B1A687B68D8
:101510001344054A1360FB6818461837BD4680BD62
:101520000080012000040000DC0B0020D81E0020F9
:101530000D48854600F026F80C480D490D4A002359
:1015400002E0D458C4500433C4188C42F9D30A4A78
:101550000A4C002301E013600432A242FBD303F0E3
:101560006DFEFFF7A5FFFEE70080012000000020D0
:10157000EC0500209C610008EC050020D81E00202E
:10158000FEE7000080B500AF164BD3F88830154A4F
:1015900043F47003C2F88830134B1B68124A43F0BF
:1015A00001031360104B00229A600F4B1B680E4A18
:1015B00023F0847323F4803313600B4B0B4A5A607F
:1015C000094B1B68084A23F480231360064B002252
:1015D000DA6000F089F8034B4FF000629A6000BFB8
:1015E00080BD00BF00ED00E0003802401030002454
:1015F00080B487B000AF00233B6100237B610223EE
:10160000FB600023BB6002237B60324B9B6803F0CE
:101610000C033B613B69042B07D0082B09D0002B3E
:101620003DD12D4B2D4A1A603DE02B4B2C4A1A60C0
:1016300039E0284B5B689B0D03F00103BB60254B31
:101640005B6803F03F037B60BB68002B0CD0244A2F
:101650007B68B2FBF3F31F4A52689209C2F3080297
:1016600002FB03F37B610BE01C4A7B68B2FBF3F3E4
:10167000184A52689209C2F3080202FB03F37B6125
:10168000144B5B681B0C03F0030301335B00FB602E
:101690007A69FB68B2FBF3F30F4A136003E00E4B69
:1016A0000E4A1A6000BF0B4B9B681B0903F00F0327
:1016B0000C4AD35CDBB23B61074B1A683B6922FAE8
:1016C00003F3054A136000BF1C37BD465DF8047B79
:1016D000704700BF00380240740500200024F40069
:1016E00040787D017805002080B400AF224B1B6C50
:1016F000214A43F080531364204B1B681F4A43F474
:10170000404313601C4B1C4A9B6893601A4B1A4A57
:101710009B689360184B9B68174A43F4805393600F
:10172000154B174A5A60144B1B68134A43F08073D9
:10173000136000BF104B1B6803F00073002BF9D03F
:10174000104B40F202621A600B4B9B680A4A23F06E
:1017500003039360084B9B68074A43F002039360BE
:1017600000BF054B9B6803F00C03082BF9D100BFA9
:10177000BD465DF8047B70470038024000700040B1
:1017800010540108003C024080B485B000AF78607E
:101790000023FB730023BB730F237B737B68DB7811
:1017A000002B39D0274BDB68DB431B0ADBB203F08D
:1017B0000703FB73FB7BC3F10403BB737A7BFB7BE7
:1017C00042FA03F37B737B685B781A46BB7B02FAB1
:1017D00003F3FB737B689A787B7B1340DAB2FB7B65
:1017E0001343FB73FB7B1B01FB73174A7B681B785E
:1017F0001344FA7B83F800237B681B7803F01F03F4
:1018000011497A6812785209D2B21046012202FABE
:1018100003F341F820300FE07B681B7803F01F03CF
:1018200009497A6812785209D2B2104601229A40C8
:1018300000F1200341F8232000BF1437BD465DF8B6
:10184000047B704700ED00E000E100E080B485B06B
:1018500000AF78600023FB60344BFB607B689B79B2
:10186000002B4FD0314B1A687B681B68DB432F4934
:1018700013400B602D4B5A687B681B68DB432B4978
:1018800013404B607B681B791A46FB681344FB606E
:10189000FB6819687B681A68FB680A431A60234B67
:1018A0009A687B681B68DB43204913408B601F4BA1
:1018B000DA687B681B68DB431C491340CB607B689C
:1018C0005B79102B0ED1194B9A687B681B681749FE
:1018D00013438B60154BDA687B681B68134913430D
:1018E000CB601DE0114BFB607B685B791A46FB689F
:1018F0001344FB60FB6819687B681A68FB680A433D
:101900001A600DE07B681B791A46FB681344FB6084
:10191000FB6819687B681B68DA43FB680A401A6039
:1019200000BF1437BD465DF8047B7047003C0140A2
:1019300080B485B000AF78600023FB73084B5A6910
:101940007B681340002B02D00123FB7301E00023CE
:10195000FB73FB7B18461437BD465DF8047B70476C
:10196000003C014080B483B000AF7860044A7B68DB
:10197000536100BF0C37BD465DF8047B704700BF64
:10198000003C014080B487B000AF7860396000232C
:101990007B6100233B610023FB6000237B6176E0D9
:1019A00001227B6902FA03F33B613B681B683A69D9
:1019B0001340FB60FA683B699A4265D17B681A68FC
:1019C0007B695B00032101FA03F3DB431A407B6868
:1019D0001A607B681A683B681B7919467B695B0053
:1019E00001FA03F31A437B681A603B681B79012BE9
:1019F00003D03B681B79022B2ED17B689A687B69E8
:101A00005B00032101FA03F3DB431A407B689A6011
:101A10007B689A683B685B7919467B695B0001FAD1
:101A200003F31A437B689A607B685A687B699BB2B0
:101A3000194601238B40DB431A407B685A607B6860
:101A40005B683A68927911467A6992B201FA02F2B9
:101A500092B21A437B685A607B68DA687B699BB2F2
:101A60005B00032101FA03F3DB431A407B68DA6071
:101A70007B68DA683B68DB7919467B695B0001FAB1
:101A800003F31A437B68DA607B6901337B617B690E
:101A90000F2B85D900BF1C37BD465DF8047B70470E
:101AA00080B483B000AF78600B467B8013467B70B8
:101AB0007B78002B03D07B687A881A8302E07B68EE
:101AC0007A885A8300BF0C37BD465DF8047B7047A7
:101AD00080B489B000AF78600023BB6100237B61D4
:101AE0000023FB6102233B610023FB600223BB60F8
:101AF000474B9B6803F00C03BB61BB69042B07D009
:101B0000082B09D0002B3DD17B68424A1A603DE08A
:101B10007B68414A1A6039E03D4B5B689B0D03F0DE
:101B20000103FB603A4B5B6803F03F03BB60FB685B
:101B3000002B0CD0384ABB68B2FBF3F3344A52682E
:101B40009209C2F3080202FB03F3FB610BE0314A86
:101B5000BB68B2FBF3F32E4A52689209C2F3080243
:101B600002FB03F3FB612A4B5B681B0C03F00303CE
:101B700001335B003B61FA693B69B2FBF3F27B68BE
:101B80001A6003E07B68234A1A6000BF204B9B6801
:101B900003F0F003BB61BB691B09BB611F4ABB6952
:101BA00013441B78DBB27B617B681A687B69DA407F
:101BB0007B685A60164B9B6803F4E053BB61BB69BA
:101BC0009B0ABB61154ABB6913441B78DBB27B617E
:101BD0007B685A687B69DA407B689A600C4B9B682B
:101BE00003F46043BB61BB695B0BBB610B4ABB6920
:101BF00013441B78DBB27B617B685A687B69DA40EF
:101C00007B68DA6000BF2437BD465DF8047B70470F
:101C1000003802400024F40040787D01880500204F
:101C200080B483B000AF78600B46FB70FB78002B6C
:101C300006D00A4B1A6B09497B6813430B6306E015
:101C4000064B1A6B7B68DB43044913400B6300BFF0
:101C50000C37BD465DF8047B704700BF003802407A
:101C600080B483B000AF78600B46FB70FB78002B2C
:101C700006D00A4B5A6C09497B6813434B6406E053
:101C8000064B5A6C7B68DB43044913404B6400BF2E
:101C90000C37BD465DF8047B704700BF003802403A
:101CA00080B483B000AF78600B46FB70FB78002BEC
:101CB00006D00A4B5A6A09497B6813434B6206E017
:101CC000064B5A6A7B68DB43044913404B6200BFF2
:101CD0000C37BD465DF8047B704700BF00380240FA
:101CE00080B485B000AF03460A46FB711346BB7152
:101CF0000023FB60BB7903F003039B000F2202FA71
:101D000003F3FB60164ABB799B08DBB2023352F83F
:101D10002320FB68DB431248B9798908C9B21A400D
:101D20008B1C40F823200E4ABB799B08DBB20233A0
:101D300052F82320F979BB7903F003039B0001FAE1
:101D400003F30748B9798908C9B21A438B1C40F8D4
:101D5000232000BF1437BD465DF8047B704700BFE9
:101D60000038014080B483B000AF03463960FB7196
:101D700097F90730002B0BDA3B68DAB20C49FB7994
:101D800003F00F03043B1201D2B20B441A7609E0B0
:101D90003B68DAB2074997F907301201D2B20B4417
:101DA00083F8002300BF0C37BD465DF8047B704705
:101DB00000ED00E000E100E080B582B000AF7860A7
:101DC0007B68013BB3F1807F01D301230FE00A4A16
:101DD0007B68013B53600F214FF0FF30FFF7C2FFDC
:101DE000054B00229A60044B07221A600023184614
:101DF0000837BD4680BD00BF10E000E080B584B06C
:101E000000AF3B461846FFF763FE3B680A4AA2FB59
:101E100003239B091846FFF7CFFF01214FF0FF3046
:101E2000FFF7A0FF4FF4C0720021044802F0B6F89B
:101E300000BF1037BD4680BDD34D6210E00B0020BF
:101E400090B587B000AFF860B9603B601346FB7196
:101E50000023FB754CE0FA7D294913465B001344CF
:101E6000DB000B4410331B68002B3ED1FA7D244964
:101E700013465B001344DB000B44FA681A60FA7DDA
:101E80001F4913465B001344DB000B4410333A68D0
:101E90001A60FA7D1A4913465B001344DB000B44B9
:101EA0000C33FA791A70FA7D154913465B00134416
:101EB000DB000B441433BA6A1A60FC7D00F072F840
:101EC00001460F4A23465B002344DB0013440433DE
:101ED0001960FA7D0A4913465B001344DB000B448A
:101EE0000833BA681A60FB7D06E0FB7D0133FB75A1
:101EF000FB7D0F2BAFD9FF2318461C37BD4690BD85
:101F0000E00B002080B483B000AF0346FB71FB7987
:101F10000F2B0AD8FA79224913465B001344DB00E1
:101F20000B4410331B68002B01D1002331E0FA79F8
:101F30001B4913465B001344DB000B4400221A606C
:101F4000FA79174913465B001344DB000B44103346
:101F500000221A60FA79124913465B001344DB0031
:101F60000B440C3300221A70FA790D4913465B00BA
:101F70001344DB000B44083300221A60FA79084945
:101F800013465B001344DB000B44043300221A6049
:101F9000012318460C37BD465DF8047B704700BF2F
:101FA000E00B002080B400AF034B1B681846BD4611
:101FB0005DF8047B704700BF600D002080B584B0E1
:101FC00000AF0023FB7368E0FA7B374913465B00E0
:101FD0001344DB000B4410331B68002B5AD0FB7BEF
:101FE000184600F063F80346002B53D0FA7B2E49C5
:101FF00013465B001344DB000B4410331B68BB60CB
:10200000FA7B294913465B001344DB000B4414336D
:102010001B687B60FA7B244913465B001344DB009A
:102020000B440C331B78DBB2FF2B20D0FA7B1E490C
:1020300013465B001344DB000B440C331B78DBB20C
:10204000002B14D0FA7B184913465B001344DB00C5
:102050000B440C331B78DBB2013BD8B21249134658
:102060005B001344DB000B440C3302461A70FA7B0E
:102070000D4913465B001344DB000B440C331B7803
:10208000DBB2002B03D1FB7B1846FFF73BFFBB689D
:1020900078689847FB7B0133FB73FB7B0F2B93D94D
:1020A00000BF1037BD4680BDE00B002080B584B076
:1020B00000AF0346FB710023FB6072B6FFF772FFAF
:1020C000B860FB790F2B0AD8FA792A4913465B00CE
:1020D0001344DB000B4410331B68002B02D162B6A3
:1020E000002342E0FA79234913465B001344DB00E6
:1020F0000B4404331B68BA689A420CD3FA791D4921
:1021000013465B001344DB000B4404331B68BA68BE
:10211000D31AFB600EE0FA79164913465B001344AC
:10212000DB000B4404331A68BB68D31AFB60FB68FE
:10213000DB43FB60FA790F4913465B001344DB0075
:102140000B4408331B68FA689A4202D262B6002335
:102150000BE0FA79074913465B001344DB000B449C
:102160000433BA681A6062B6012318461037BD46B8
:1021700080BD00BFE00B002080B400AF044B1B68A3
:102180000133034A136000BFBD465DF8047B70470E
:10219000600D002080B59EB000AF0346FB710121A9
:1021A0004FF48070FFF75CFD01210420FFF738FD3C
:1021B00001214FF48000FFF733FD2023BB6403238C
:1021C00087F84C30002387F84F3007F14803194651
:1021D0004348FFF7D7FB01F0FAFE0023BB6600235C
:1021E000FB6600233B6700237B6707F16803184603
:1021F00001F052FF00233B65002387F85430012390
:1022000087F855300023BB650023FB6500233B6640
:10221000012387F8643007F150031946314801F073
:10222000E5FEFB79012B10D101212E4802F052F876
:1022300000212C4802F06AF801212A4802F082F8B5
:102240000121284802F0A0F836E0274802F0F0F813
:102250000023FB60254B3B61254B7B610023BB6169
:102260000123FB6100233B6200237B624FF4006388
:10227000BB624FF40053FB624FF480733B634FF437
:1022800000337B630023BB630123FB6300233B64B8
:1022900000237B6407F10C031946134802F09CF9F4
:1022A0000121114802F0F0F901210E4802F0A4F8D2
:1022B00001210C4802F084F8012301220F21094872
:1022C00001F02EFF0121074801F00EFFFB79002BE2
:1022D00002D1044801F0EEFF00BF7837BD4680BD53
:1022E0000008024000200140106402404C200140E0
:1022F000640D002080B400AF034B1B889BB21846CE
:10230000BD465DF8047B7047640D002080B582B047
:1023100000AF72B640F225510E4802F0E1F90346D3
:10232000012B12D10C4B1B687B600A4802F0C8F9E4
:102330000346DBB2FB70FB1C1946786801F09EFD7A
:1023400040F22551034802F026FA62B600BF083772
:10235000BD4680BD00440040680D002080B483B0BD
:1023600000AF786000BF0C37BD465DF8047B704756
:1023700080B582B000AF01210720FFF751FC012397
:102380003B7103237B710023BB710023FB714FF46E
:1023900068733B603B4619460A48FFF7F3FA4FF46F
:1023A00088633B603B4619460748FFF7EBFA8023FA
:1023B0003B603B4619460548FFF7E4FA00BF083783
:1023C000BD4680BD000002400004024000080240FB
:1023D00080B584B000AF78600B46FB700823FB73B8
:1023E00097F90330002B05DA012280211448FFF70A
:1023F00057FB04E0002280211148FFF751FB012028
:10240000FFF7ACFF012220210D48FFF749FB012017
:10241000FFF7A4FFFB7B013BFB7300222021084850
:10242000FFF73EFB0120FFF799FFFB785B00FB7095
:10243000FB7B002BD4D100BF1037BD4680BD00BF51
:102440000000024080B584B000AFF8607B600B46AE
:102450007B8113463B81B7F90A300A3B0B2B00F214
:10246000DC8001A252F823F0992400081B26000802
:10247000EB240008F52400080525000815250008B0
:1024800027250008472500086F250008A525000816
:10249000C325000813260008FFF76AFF01228021E8
:1024A0006048FFF7FDFA012240215F48FFF7F8FA84
:1024B000012280215D48FFF7F3FA01224FF40071F9
:1024C0005848FFF7EDFA002220215648FFF7E8FAB6
:1024D00001224FF480615448FFF7E2FA01224FF4E1
:1024E00080715048FFF7DCFA97E03B891846FFF708
:1024F00035FF92E03B89DBB21A4680214B48FFF75B
:10250000CFFA8AE03B89DBB21A4640214648FFF702
:10251000C7FA82E03B89DBB21A464FF400714148AA
:10252000FFF7BEFA79E03B89DBB21946F868FFF79E
:102530004FFF72E07B681B781946F868FFF748FF89
:102540003B89013B3B813B89002BF3D165E07B68F4
:102550001B781946F868FFF73BFF7B6801331B784F
:102560001946F868FFF734FF3B89013B3B813B8903
:10257000002BECD151E07B681B781946F868FFF717
:1025800027FF7B6801331B781946F868FFF720FFA7
:102590007B6802331B781946F868FFF719FF3B89FF
:1025A000013B3B813B89002BE5D136E07B685A1C1F
:1025B0007A601B781946F868FFF70AFF3B89013BF0
:1025C0003B813B89002BF1D127E07B681B78002BF6
:1025D00010D07B681B78012B06D100224FF40071CC
:1025E0001048FFF75DFA05E001224FF400710D4835
:1025F000FFF756FA7B6801337B607B681B781946CE
:10260000F868FFF7E5FE7B6801337B603B89013B9F
:102610003B813B89002BD8D100BF012318461037DE
:10262000BD4680BD00000240000402400008024098
:1026300080B582B000AF78600B46FB70074B084A4C
:102640000849786801F0F0F9FB781946786800F0DD
:10265000D4FF00BF0837BD4680BD00BF4524000839
:10266000392D0008612E000880B584B000AFF860F5
:10267000084611461A4603467B810B463B811346AA
:10268000FB8014E0B7F90630B7F90820B7F90A1053
:10269000F86801F03BFAB7F918309BB2013B9BB2E6
:1026A0003B83B7F908309BB201339BB23B81B7F94A
:1026B0001830002BE6DC00BF1037BD4680BD80B56A
:1026C00084B002AF78600023009300230022002131
:1026D000786801F059FA786800F089FB7B68B3F9F3
:1026E00002207B68B3F904300093134600220021D6
:1026F0007868FFF7B9FFFF230093FF23FF22002133
:10270000786801F041FA00BF0837BD4680BD80B54A
:1027100086B000AFF860084611461A4603467B8132
:102720000B463B811346FB807B89FB82B7F9063061
:10273000B7F90820B7F90A10F86801F0E7F9B7F916
:102740002030B7F90820B7F90A10F86801F0FDF950
:102750007A89FB8813449BB27B81B7F90A309BB21C
:10276000013B9BB27B81B7F92030B7F90820B7F95C
:102770000A10F86801F0E9F93A893B8C13449BB2DE
:102780003B81B7F908309BB2013B9BB23B81B7F963
:102790000630B7F90820B7F91610F86801F0B6F955
:1027A00000BF1837BD4680BD80B483B000AF7860ED
:1027B000084611461A460346FB700B46BB7013468B
:1027C0003B807B68FA785A70BB789AB2FB789BB2F0
:1027D000D31A9BB21AB27B689A803B88013B9BB2AA
:1027E0001AB27B681A817B6801225A807B68B3F930
:1027F00004301A467B68B3F9083092FBF3F31AB23F
:102800007B68DA807B68B3F90430002B0CDA7B68D4
:10281000B3F904309BB25B429BB21AB27B689A80D8
:102820007B684FF6FF725A807B68B3F904307A6890
:10283000B2F9082093FBF2F102FB01F29B1A1AB2E3
:102840007B685A817B68B3F90830DA0F13445B1058
:102850001AB27B689A817B68FA781A7000BF0C37CD
:10286000BD465DF8047B704780B483B000AF7860EC
:102870007B681A787B68B3F90630DBB21344DAB2AE
:102880007B681A707B68B3F90C309AB27B68B3F935
:102890000A309BB213449BB21AB27B689A817B6860
:1028A000B3F90C207B68B3F908309A4216DB7B68D9
:1028B0001A787B68B3F90230DBB21344DAB27B6872
:1028C0001A707B68B3F90C309AB27B68B3F90830A0
:1028D0009BB2D31A9BB21AB27B689A8100BF0C37A5
:1028E000BD465DF8047B704780B485B000AF78606A
:1028F0000B467B807B68B3F90630DAB27B681A70CE
:102900007B681A787B88DBB212FB03F3DAB27B6850
:102910001A707B68B3F90A309AB27B8812FB03F312
:102920009AB27B68B3F90830D90F0B445B101BB225
:102930009BB213449BB2FB817B68B3F90230002B3E
:102940000EDB7B681A78B7F90E307968B1F9081098
:1029500093FBF1F3DBB21344DAB27B681A700DE03B
:102960007B681A78B7F90E307968B1F9081093FBD3
:10297000F1F3DBB2D31ADAB27B681A70B7F90E3012
:102980007A68B2F9082093FBF2F102FB01F29B1A7C
:102990001AB27B689A817B681A787B685B781344EB
:1029A000DAB27B681A7000BF1437BD465DF8047B4D
:1029B000704780B584B000AFF8600B467A607B81C9
:1029C000B7F90A300C2B0AD0172B0FD1FB68DB6844
:1029D000B7F90A107A68F8689847034607E0FB6879
:1029E0007A6870331068516803C300BF012318462A
:1029F0001037BD4680BD80B485B000AFF8600B468F
:102A00007A607B81012318461437BD465DF8047B4C
:102A10007047000090B585B000AF7860786801F02D
:102A200075FF0346002B53D07B68B3F92E30012B82
:102A300008D0022B0BD0002B1BD12849786802F05C
:102A400093FA28E02649786802F08EFA23E07B6842
:102A50009B8CFB81FB89C3F17F039BB21AB27B681D
:102A60009A842049786802F07FFA7B68FA899A8410
:102A700011E07B68DB8CFB81FB89C3F17F039BB298
:102A80001AB27B68DA841849786802F06DFA7B68BC
:102A9000FA89DA8400BF7B6893F828303B727B6840
:102AA00093F829307B727B6893F82A30BB727B687D
:102AB000DC697B68B3F92C309AB207F10803132163
:102AC0007868A0470121786802F09AF9012300E0B4
:102AD000002318461437BD4690BD00BFA45B000814
:102AE000C45B0008E85B00080C5C000890B587B088
:102AF00000AF78600023FB751AE07B6803F14601A4
:102B0000FA7D1346DB009B1A5B00C818FB7D7A68D0
:102B1000134493F83A10FB7D7A68134493F83D20F0
:102B20007B68B3F92C30FFF73FFEFB7D0133FB756B
:102B3000FB7D022BE1D9786802F068F80346002B90
:102B400071D07B68B3F92E30012B08D0022B0BD04B
:102B5000002B1BD13649786802F006FA28E0354987
:102B6000786802F001FA23E07B689B8C7B827B8A89
:102B7000C3F17F039BB21AB27B689A842E497868AE
:102B800002F0F2F97B687A8A9A8411E07B68DB8C28
:102B90007B827B8AC3F17F039BB21AB27B68DA84A3
:102BA0002649786802F0E0F97B687A8ADA8400BF07
:102BB0000023BB822AE07B6893F846303B737B6836
:102BC00093F854307B737B6893F86230BB737B68F7
:102BD000DC6907F10C03012213217868A0477B68A8
:102BE00046331846FFF740FE7B6846330E331846DF
:102BF000FFF73AFE7B6846331C331846FFF734FE76
:102C0000B7F914309BB201339BB2BB827B68B3F936
:102C10002C30B7F914209A42CDDB0121786802F0FC
:102C2000EFF8012300E0002318461C37BD4690BD95
:102C3000A45B0008C45B0008E85B00080C5C0008AB
:102C400090B587B000AFF8600B467A607B81B7F92A
:102C50000A300A3B0B2B5FD801A252F823F000BFC9
:102C6000912C0008AB2C0008192D0008192D000824
:102C7000192D0008B72C0008192D0008192D00087F
:102C8000192D0008192D0008C72C00080F2D000869
:102C9000FB6802221A84FB6801225A8442226421C2
:102CA000F86801F0FCFF03463EE02149F86802F0B5
:102CB0005BF9012338E07B6880221A807B688022E0
:102CC0005A80012330E0F86801F006FE0346002B2D
:102CD0001BD01849F86802F047F9FB6893F82830D0
:102CE0003B75FB6893F829307B75FB6893F82A30B5
:102CF000BB75FB68DC6907F1140301221321F86836
:102D0000A0470121F86802F07BF801230CE0F86885
:102D1000FFF780FE012307E0B7F90A307A68194609
:102D2000F868FFF746FE034618461C37BD4690BDBF
:102D3000305C0008845B000880B584B000AFF860A8
:102D40000B467A607B81B7F90A30172B03D1F868FC
:102D5000FFF7CCFE00BF012318461037BD4680BDEB
:102D600080B582B000AF78607B681B7803F0010308
:102D7000DBB2002B0AD07B689B6800220B217868AD
:102D800098477A6813786FF30003137000BF083711
:102D9000BD4680BD80B584B000AF78607868FFF72D
:102DA000DFFF7B689B6800220A217868984703460A
:102DB000FB81B7F90E30002B04D07A68137843F00A
:102DC00001031370B7F90E3018461037BD4680BDA9
:102DD00080B582B000AF786039607B689B683A68E4
:102DE0000C217868984700BF0837BD4680BD80B584
:102DF00084B000AF78607A6807F10C030232106883
:102E0000186000233B8100237B8107F108031946EA
:102E10007868FFF7DDFF00BF1037BD4680BD80B585
:102E200082B000AF78607B689B687A6802320F21BD
:102E3000786898477868FFF7DAFF00BF0837BD4623
:102E400080BD80B582B000AF78607B689B687A688F
:102E5000243215217868984700BF0837BD4680BDE9
:102E600080B584B000AFF8600B467A607B81B7F91B
:102E70000A300B2B15D00F2B1CD00A2B22D1B7F9FF
:102E80000A307A681946F868FFF7DAFE0346002B25
:102E900001D100231EE01149F86802F065F8012312
:102EA00018E0B7F90A307A681946F868FFF7C8FEE3
:102EB00003460FE07B6880221A807B6880225A805C
:102EC000012307E0B7F90A307A681946F868FFF776
:102ED000B7FE034618461037BD4680BD385C000873
:102EE00080B483B000AF78600B46FB70FB787A68E3
:102EF00013447B607B681B7818460C37BD465DF831
:102F0000047B704780B485B000AF78600B46FB70DF
:102F1000FB787A6813447B607B681B78FB817B6855
:102F200001337B60FB891B02FB817B681B789AB2B3
:102F3000FB891344FB81FB8918461437BD465DF8B5
:102F4000047B704780B582B000AF786039600021A3
:102F50003868FFF7C5FF03461A467B681A700121DF
:102F60003868FFF7BDFF03461A467B685A70022196
:102F70003868FFF7B5FF03461A467B689A7003214D
:102F80003868FFF7ADFF03461A467B68DA70042104
:102F90003868FFF7A5FF03461A467B681A710521BA
:102FA0003868FFF79DFF03461A467B685A71062171
:102FB0003868FFF795FF03461A467B689A71072128
:102FC0003868FFF78DFF03461A467B68DA710821DF
:102FD0003868FFF785FF03461A467B681A72092195
:102FE0003868FFF77DFF03465AB27B685A720A21A0
:102FF0003868FFF775FF03465AB27B689A720B2157
:103000003868FFF76DFF03465AB27B68DA720C210D
:103010003868FFF765FF03465AB27B681A730D21C3
:103020003868FFF75DFF03465AB27B685A730E217A
:103030003868FFF755FF03465AB27B689A730F2131
:103040003868FFF74DFF03465AB27B68DA731021E8
:103050003868FFF745FF03465AB27B681A7411219E
:103060003868FFF74FFF03461A467B685A821321E0
:103070003868FFF747FF03461A467B689A8200BF0D
:103080000837BD4680BD80B485B000AF78600B4680
:10309000FB707B681B7B7B737B681B681B78FB73F7
:1030A000FA7B7B7B42FA03F3FB737B7BBB73BA7BBC
:1030B000FB781344BB73BB7B072B1AD908233B73E4
:1030C0003A7B7B7BD31A3B737B681B685A1C7B68FB
:1030D0001A607B681B681B781A463B7B02FA03F375
:1030E0005AB297F90F3013435BB2FB73BB7B083BBB
:1030F000BB73FB784FF0FF3202FA03F3DBB2DB4322
:10310000DAB2FB7B1340FB737B68BA7B1A73FB7BE1
:1031100018461437BD465DF8047B704780B584B00F
:1031200000AF78600B46FB70FB7819467868FFF7B4
:10313000AAFF0346FB730123BB73FB78013BFB70C3
:1031400097F90E20FB7802FA03F3BB73FA7BBB7B83
:10315000D31ADBB2FB7397F90F3018461037BD4610
:1031600080BD90B482B000AF0446084611461A46AE
:103170002346FB8003467B710B463B711346FB7075
:10318000FB78012B0BD0022B11D0002B17D197F914
:1031900004309AB2FB8813449BB2FB8017E097F986
:1031A00005309AB2FB8813449BB2FB800FE0FA888B
:1031B00097F904309BB2D31A9BB2FB8007E0FA88E0
:1031C00097F905309BB2D31A9BB2FB8000BFB7F9C9
:1031D000063018460837BD4690BC704790B482B0A0
:1031E00000AF0446084611461A462346FB800346B4
:1031F0007B710B463B711346FB70FB78012B0BD0A8
:10320000022B11D0002B17D197F905309AB2FB8809
:1032100013449BB2FB8017E0FA8897F904309BB205
:10322000D31A9BB2FB800FE0FA8897F905309BB266
:10323000D31A9BB2FB8007E097F904309AB2FB885F
:1032400013449BB2FB8000BFB7F90630184608371D
:10325000BD4690BC704790B589B002AF78600B4610
:10326000FB701346BB707B6880333B61FB78FB755A
:103270003B6993F908307B753B6993F909303B75DD
:103280003B6993F90A30FB73FA7B7B7DD31AFB739E
:10329000FB7BBB75FA7DFB7B9A4201D2FB7DBB7544
:1032A0003B699B88BB813B69DB887B8197F9151063
:1032B00097F914203B699B7BB7F90C00FFF78EFF51
:1032C0000346BB8197F9151097F914203B699B7B46
:1032D000B7F90A00FFF745FF03467B81BB78002B57
:1032E00011D0BB7D1CB23B699B7B1BB2B7F90A00B6
:1032F000B7F90C1000220192009323460246786829
:1033000000F0C0FB14E03B695B7B002B10D1BB7D60
:103310001CB23B699B7B1BB2B7F90A00B7F90C10D2
:1033200001220192009323460246786800F0AAFB2E
:10333000FA7DFB7B9A4209D3FA7DFB7BD31AFB759E
:1033400000237B753B7D01333B7599E700BF7A7D98
:10335000FB7D13447B7597F915203B691A7297F929
:1033600014203B695A7200BF1C37BD4690BD80B522
:1033700084B000AF786039607B688033FB60FB68A5
:103380003A681A60FB6800221A73FB681B685A1CB3
:10339000FB681A60FB681B685A1CFB681A607B6834
:1033A00093F894301946F868FFF76DFE03465AB259
:1033B000FB689A727B6893F895301946F868FFF7B6
:1033C00062FE03465AB2FB68DA7200BF1037BD4690
:1033D00080BD80B584B000AF7860396039687868A6
:1033E000FFF7C5FF7B6893F88B30FB737B6803F1B5
:1033F00080027B6893F8963019461046FFF78EFEE0
:103400000346BB737B6803F180027B6893F89730B7
:1034100019461046FFF782FE03467B737B6803F173
:1034200080027B6893F8983019461046FFF776FEC5
:1034300003463B737B6893F98A30002B69DD7B6818
:10344000B3F98400FA7B7B7B1344DBB25B42DBB2D3
:103450005AB27B6893F88E3097F90E10FFF7BEFED4
:1034600003461A467B68A3F884207B68B3F986007C
:10347000FA7B7B7B1344DBB25B42DBB25AB27B68E4
:1034800093F88E3097F90E10FFF76BFE03461A463D
:103490007B68A3F886207B68002283F888207B68FD
:1034A000002283F889207B6803F180027B6893F80F
:1034B000923019461046FFF7E6FD0346FB727B6823
:1034C00003F180027B6893F8933019461046FFF7AA
:1034D000DAFD0346BB72FB7A002219467868FFF7D3
:1034E000BAFEBB7A012219467868FFF7B4FE7B6802
:1034F000803301211846FFF7C6FD0346002BEAD1B1
:103500007B6893F9893097F90F209A4200DDCAE76A
:1035100000BF97F90C3018461037BD4680BD80B407
:1035200085B000AF78600B46FB707B689B6FFB60DB
:10353000FB681533FB60FB78602B07D97B68B3F819
:10354000A4301A46FB681344FB6009E0FB78402B6B
:1035500006D97B68B3F8A2301A46FB681344FB60B7
:10356000FB6801331B78002B0ED0FB681B78FA78C0
:103570009A4201D1FB6809E0FB6801331B781A46C7
:10358000FB681344FB60EBE700BF002318461437C9
:10359000BD465DF8047B704780B586B000AFF8602B
:1035A000084611461A4603467B810B463B8113466B
:1035B000FB710023FB82FB687A89A3F88420FB68F7
:1035C0003A89A3F88620FB68FA7983F88E2097F869
:1035D00020301946F868FFF7A2FF38613B69002BDD
:1035E00005D03969F868FFF7F4FE0346FB82B7F9A6
:1035F000163018461837BD4680BD80B483B000AF82
:1036000078600B46FB707B68FA7883F88D2000BFEA
:103610000C37BD465DF8047B7047000080B586B06E
:1036200002AFF860084611461A4603467B810B46F6
:103630003B811346FB71FB79032B37D801A252F86B
:1036400023F000BF553600086B36000881360008AD
:1036500097360008FB68DB6FF868984703469AB214
:103660003B8913449BB23B8120E0FB68DB6FF86829
:10367000984703467A899BB2D31A9BB27B8115E0A7
:10368000FB68DB6FF868984703463A899BB2D31A08
:103690009BB23B810AE0FB68DB6FF8689847034602
:1036A0009AB27B8913449BB27B8100BFF879B7F94A
:1036B0000820B7F90A103B7E00930346F868FFF72D
:1036C0006BFF034618461037BD4680BD80B586B0F7
:1036D00002AF78600023FB817B68BB60454B1B78A1
:1036E000002B02D0012B1ED07BE0434800F07BFB77
:1036F0000346002B07D041493F4800F00DFC3D4BED
:1037000001221A7071E03E4B1B78FF2B07D03C4B17
:103710001B781846FEF7F6FB394BFF221A70354B23
:1037200000221A7061E0354B9B681B78002B54D047
:10373000324BB3F90010314BB3F902202F4B1879FB
:103740002E4B9B681B7800930346B868FFF766FF13
:103750000346FB81294B1B79032B37D801A252F872
:1037600023F000BF753700088B370008A137000829
:10377000B7370008214BB3F900309AB2FB891344E4
:103780009BB21AB21D4B1A8021E01C4BB3F90230D8
:103790009AB2FB8913449BB21AB2184B5A8016E0B6
:1037A000164BB3F900309AB2FB89D31A9BB21AB206
:1037B000124B1A800BE0114BB3F902309AB2FB891D
:1037C000D31A9BB21AB20D4B5A8000E000BF0B4BCC
:1037D0009B680133094A936007E0064B00221A7088
:1037E00003E0044B00221A7000BF00BF1037BD4633
:1037F00080BD00BF801D0020700D0020CC1E002069
:103800009805002080B58AB002AFF86008461146DE
:103810001A4603467B810B463B811346FB7100230E
:10382000FB837B893B823B897B82FB793B75BB6A4F
:10383000BB6107F1100319460C4800F01FFB0C4B4D
:103840001B78FF2B0BD1FB6800930A4BFF221E2134
:103850000948FEF7F5FA03461A46054B1A70B7F900
:103860001E3018462037BD4680BD00BF700D0020B9
:1038700098050020CD360008745B000880B483B042
:1038800000AF78607B689B6F002B5DD07B6893F9FD
:103890009D207B6883F8AC207B6893F99E207B6831
:1038A00083F8AD207B6893F8AB30002B4DD07B685C
:1038B00093F8AB30012B1CD17B6893F9AC207B686B
:1038C00093F99F309A4205DA7B6893F99F207B68D1
:1038D00083F8AC207B6893F9AD207B6893F9A03026
:1038E0009A4232DD7B6893F9A0207B6883F8AD2093
:1038F0002BE07B6893F9AC301A467B6893F99A30D9
:1039000019467B6893F99C300B449A420DDA7B6828
:1039100093F99A30DAB27B6893F99C30DBB21344A6
:10392000DBB25AB27B6883F8AC207B6893F9AD2098
:103930007B6893F99C309A4207DD7B6893F99C2061
:103940007B6883F8AD2000E000BF0C37BD465DF812
:10395000047B704780B483B000AF786000231846C2
:103960000C37BD465DF8047B7047000080B483B01F
:1039700000AF78607B68044ADA6700BF0C37BD4649
:103980005DF8047B704700BF5539000880B582B0F0
:1039900000AF786039607B689B6F3A689A4212D0BA
:1039A0007B683A689A677B68903339681846FFF7F6
:1039B000C9FA7868FFF762FF4FF480530C2204497C
:1039C000044800F0F5F900BF0837BD4680BD00BFD0
:1039D000700D0020800D002080B483B000AF7860AF
:1039E0007A6813786FF3000313707B6800221A6102
:1039F0007B6801225A867B6800229A677B680122D5
:103A000083F88D207B68002283F8AE207B6800223B
:103A100083F8AF207B68002283F8B02000BF0C370A
:103A2000BD465DF8047B704780B586B000AFF86096
:103A3000B9607A603B60F868FFF7CEFF7B68002BC7
:103A400003D1FB680E4ADA6002E0FB687A68DA604C
:103A5000FB68BA689A60FB683A68DA61F868FFF751
:103A600085FFF868FFF796F90346FB82F868FFF7D1
:103A7000D6F9B7F9163018461837BD4680BD00BFD5
:103A8000F729000880B584B000AFF86008461146F9
:103A90001A4603467B810B463B811346FB80B7F9F0
:103AA0001C20F96813465B0013440B443A331A7820
:103AB000FB6883F82820B7F91C20F96813465B00DF
:103AC00013440B443B331A78FB6883F82920B7F979
:103AD0001C20F96813465B0013440B443C331A78EE
:103AE000FB6883F82A20FB687A899A84FB683A8904
:103AF000DA84FB68FA889A85FB683A8BDA85F8687D
:103B0000FFF79FF900BF1037BD4680BD80B586B076
:103B100002AFF860084611461A4603467B810B4601
:103B20003B811346FB80B7F90600B7F90820B7F9C7
:103B30000A1000230193002300930346F868FFF75F
:103B4000A1FF00BF1037BD4680BD80B586B002AF73
:103B5000F860084611461A4603467B810B463B81B6
:103B60001346FB80B7F90600B7F90820B7F90A1029
:103B700000230193012300930346F868FFF782FFB7
:103B800000BF1037BD4680BD80B483B000AF786001
:103B9000084611461A460346FB700B46BB70134697
:103BA0007B70FA78796813465B0013440B443A3310
:103BB000BA781A70FA78796813465B0013440B449C
:103BC0003B337A781A70FA78796813465B001344AD
:103BD0000B443C333A7C1A7000BF0C37BD465DF88D
:103BE000047B704780B582B000AF78607B681B694A
:103BF000002B06D07B681A697B689A607B6800227C
:103C00001A617868FFF70BF97868FFF7F0F800BFE2
:103C10000837BD4680BD80B485B000AF786039609C
:103C20007B68DB8AFB81FA893B68B3F902309BB27F
:103C3000D31A9BB2FB81B7F90E309BB2013B9BB20A
:103C4000FB813B68FA895A807B689B8ABB81BA8971
:103C50003B68B3F900309BB2D31A9BB2BB81B7F972
:103C60000C309BB2013B9BB2BB813B68BA891A8086
:103C700000BF1437BD465DF8047B704780B584B043
:103C800000AFF8600B467A607B81B7F90A300C3BD5
:103C90000B2B66D801A252F823F000BFEB3C0008C2
:103CA000633D0008633D0008CD3C0008633D00080B
:103CB000633D0008633D0008633D0008333D000894
:103CC000333D0008633D0008333D0008FB681B6975
:103CD000FA681432B7F90A10F86898477A68FB68EE
:103CE000143318681060012343E07B68B3F9023095
:103CF0009AB27B68B3F906309BB213449BB2013B86
:103D00009BB21AB27B685A807B68B3F900309AB2D2
:103D10007B68B3F904309BB213449BB2013B9BB266
:103D20001AB27B681A807B681946F868FFF773FF40
:103D300017E0FB68B3F92E309BB202339BB21AB284
:103D4000FB68DA85FB68B3F92E3003F003031AB27F
:103D5000FB68DA85FB6824331946F868FFF75BFFD8
:103D600000BFFB681B69B7F90A107A68F8689847C2
:103D7000034618461037BD4680BD00BF80B582B0EF
:103D800000AF78607868FFF72DFF7B689A687B68E2
:103D90001A617B68054A9A607868FFF740F878688E
:103DA000FFF725F800BF0837BD4680BD7D3C000801
:103DB00080B584B000AFF860B96011461A460B4672
:103DC000FB711346BB80BB68BA881A80BB68FA795E
:103DD0001A71BB68FA68DA60B86800F036F800BF9C
:103DE0001037BD4680BD80B483B000AF78607B687B
:103DF0005B8818460C37BD465DF8047B704780B47D
:103E000083B000AF78607B685A887B681B889A42D1
:103E10002CBF01230023DBB218460C37BD465DF8EA
:103E2000047B704780B483B000AF78607B68DA8829
:103E30007B681B899A420CBF01230023DBB2184622
:103E40000C37BD465DF8047B704780B582B000AF8B
:103E500078607B680022DA807B6800221A817B68A8
:103E600000225A807B68D8687B681B881A4600212C
:103E700000F094F800BF0837BD4680BD80B584B01F
:103E800000AF7860396072B60023FB7321E0FB7BE2
:103E90003A681A447B68DB687968C9880B441278F1
:103EA0001A707B68DB8801339BB21AB27B681B886F
:103EB000013B9BB21BB213401BB29AB27B68DA8003
:103EC0007B685B8801339AB27B685A80FB7B013345
:103ED000FB737B681B79FA7B9A42D8D37868FFF72B
:103EE0008EFF0346002B11D07B681A897B681B79F3
:103EF0009BB213449BB21AB27B681B88013B9BB2F6
:103F00001BB213401BB29AB27B681A8162B60023BF
:103F100018461037BD4680BD80B584B000AF7860CC
:103F2000396072B67868FFF77DFF0346002B05D035
:103F30007B6800225A8062B602232BE00023FB73C9
:103F400021E07B68DB687A6812891A44FB7B396858
:103F50000B4412781A707B681B8901339BB21AB22A
:103F60007B681B88013B9BB21BB213401BB29AB209
:103F70007B681A817B685B88013B9AB27B685A80B8
:103F8000FB7B0133FB737B681B79FA7B9A42D8D3A6
:103F900062B6002318461037BD4680BD80B483B09A
:103FA00000AF78600B46FB7013463B8004E07B68F3
:103FB0005A1C7A60FA781A703B885A1E3A80002B95
:103FC000F5D100BF0C37BD465DF8047B704780B566
:103FD00000AF01214FF48070FDF762FE00214FF425
:103FE0008070FDF75DFE00BF80BD000080B485B02D
:103FF00000AF786039600023FB600023FB727B68B0
:104000005B68FB60FB6823F0407323F48073FB6004
:104010003B681B791A023B681B681343FA68134319
:10402000FB607B68FA685A607B689B68FB60FA6893
:10403000184B1340FB603B681A693B68DB681A4306
:104040003B689B681A433B685B795B001343FA68E3
:104050001343FB607B68FA689A607B68DB6AFB60ED
:10406000FB6823F47003FB603B681B7D013BDAB205
:10407000FB7A1343FB72FB7A1B05FA681343FB6060
:104080007B68FA68DA6200BF1437BD465DF8047BCE
:10409000704700BFFDF7FFC080B485B000AF786007
:1040A0000023FB600E4B5B68FB60FA680D4B13400E
:1040B000FB607B681A687B685B681A437B689B6857
:1040C0001A437B68DB681343FA681343FB60044AB6
:1040D000FB68536000BF1437BD465DF8047B704732
:1040E00000230140E030FCFF80B483B000AF786073
:1040F0000B46FB70FB78002B06D07B689B6843F077
:1041000001027B689A6005E07B689B6823F00102EE
:104110007B689A6000BF0C37BD465DF8047B704732
:1041200080B485B000AF7860084611461A46034651
:10413000FB700B46BB7013467B700023FB600023B3
:10414000BB60FB78092B23D97B68DB68FB60FB78BD
:10415000A3F10A0213465B001344072202FA03F399
:10416000BB60BB68DB43FA681340FB607978FB787F
:10417000A3F10A0213465B00134401FA03F3BB6088
:10418000FA68BB681343FB607B68FA68DA601EE07C
:104190007B681B69FB60FA7813465B0013440722B7
:1041A00002FA03F3BB60BB68DB43FA681340FB60B1
:1041B0007978FA7813465B00134401FA03F3BB6085
:1041C000FA68BB681343FB607B68FA681A61BB78C6
:1041D000062B21D87B685B6BFB60BB785A1E1346AD
:1041E0009B0013441F2202FA03F3BB60BB68DB434E
:1041F000FA681340FB60F978BB785A1E13469B009F
:10420000134401FA03F3BB60FA68BB681343FB6015
:104210007B68FA685A6347E0BB780C2B21D87B682F
:104220001B6BFB60BB78DA1F13469B0013441F22F5
:1042300002FA03F3BB60BB68DB43FA681340FB6020
:10424000F978BB78DA1F13469B00134401FA03F395
:10425000BB60FA68BB681343FB607B68FA681A634B
:1042600022E07B68DB6AFB60BB78A3F10D0213469A
:104270009B0013441F2202FA03F3BB60BB68DB43BD
:10428000FA681340FB60F978BB78A3F10D0213467E
:104290009B00134401FA03F3BB60FA68BB68134345
:1042A000FB607B68FA68DA6200BF1437BD465DF8D0
:1042B000047B704780B483B000AF78607B689B68F4
:1042C00043F080427B689A6000BF0C37BD465DF8C2
:1042D000047B704780B483B000AF78600B46FB70FE
:1042E000FB78002B06D07B689B6843F480627B6878
:1042F0009A6005E07B689B6823F480627B689A6023
:1043000000BF0C37BD465DF8047B704780B483B0B6
:1043100000AF78600B46FB70FB78002B06D07B6803
:104320009B6843F002027B689A6005E07B689B68AB
:1043300023F002027B689A6000BF0C37BD465DF82F
:10434000047B704780B485B000AF78600B46FB708B
:104350000023FB600023BB607B685B68FB60FB683D
:1043600023F46043FB60FB78013BBB60BB685B03ED
:10437000FA681343FB607B68FA685A6000BF143721
:10438000BD465DF8047B704780B483B000AF7860B1
:104390000B46FB70FB78002B06D07B685B6843F410
:1043A00000627B685A6005E07B685B6823F400620A
:1043B0007B685A6000BF0C37BD465DF8047B7047D0
:1043C00080B483B000AF78600B46FB70FB78002BA5
:1043D00006D07B689B6843F480727B689A6005E036
:1043E0007B689B6823F480727B689A6000BF0C37FF
:1043F000BD465DF8047B704780B483B000AF786041
:104400000B46FB70FB78002B06D07B689B6843F45F
:1044100000727B689A6005E07B689B6823F40072F9
:104420007B689A6000BF0C37BD465DF8047B70471F
:1044300080B483B000AF78607B681B6823F0010212
:104440007B681A607B6800221A607B6800225A60D1
:104450007B6800229A607B680022DA607B68002219
:104460001A617B6821225A617B68464A934203D1D4
:10447000454B3D229A607EE07B68444A934204D1DA
:10448000414B4FF474629A6075E07B68404A9342F6
:1044900004D13D4B4FF474129A606CE07B683D4A46
:1044A000934204D1384B4FF074629A6063E07B68AA
:1044B000394A934203D1344B384ADA605BE07B6877
:1044C000374A934203D1304B364ADA6053E07B6877
:1044D000354A934203D12C4B344ADA604BE07B6877
:1044E000334A934204D1284B4FF03D52DA6042E008
:1044F0007B68304A934203D12F4B3D229A603AE0C9
:104500007B682E4A934204D12B4B4FF474629A601D
:1045100031E07B682A4A934204D1274B4FF474124E
:104520009A6028E07B68274A934204D1224B4FF0DF
:1045300074629A601FE07B68234A934203D11E4B4A
:10454000164ADA6017E07B68204A934203D11A4B7F
:10455000144ADA600FE07B681D4A934203D1164B80
:10456000124ADA6007E07B681A4A934203D1124B81
:104570004FF03D52DA6000BF0C37BD465DF8047B5A
:10458000704700BF10600240006002402860024097
:104590004060024058600240706002403D000020D0
:1045A00088600240400F0020A060024000003D20D3
:1045B000B860024010640240006402402864024077
:1045C00040640240586402407064024088640240C3
:1045D000A0640240B864024080B485B000AF786047
:1045E00039600023FB607B681B68FB60FA68254B21
:1045F0001340FB603B681A683B68DB681A433B6802
:104600005B691A433B689B691A433B68DB691A4341
:104610003B681B6A1A433B685B6A1A433B689B6AA8
:104620001A433B685B6B1A433B689B6B1343FA6806
:104630001343FB607B68FA681A607B685B69FB6008
:10464000FB6823F00703FB603B68DA6A3B681B6B7F
:104650001343FA681343FB607B68FA685A613B684E
:104660001A697B685A603B685A687B689A603B6845
:104670009A687B68DA6000BF1437BD465DF8047B3A
:10468000704700BF3F801CF080B483B000AF7860FB
:104690000B46FB70FB78002B06D07B681B6843F051
:1046A00001027B681A6005E07B681B6823F0010249
:1046B0007B681A6000BF0C37BD465DF8047B70470D
:1046C00080B483B000AF78607B689B889BB2C3F3F3
:1046D00008039BB218460C37BD465DF8047B704753
:1046E00080B487B000AF78600B467B800023FB600E
:1046F00000237B610023BB600023FB747B88DBB25B
:104700005B09DBB2BB607B8803F01F037B61012286
:104710007B6902FA03F37B61BB68012B07D17B68DD
:104720009B899BB21A467B6913407B6111E0BB6891
:10473000022B07D17B681B8A9BB21A467B69134008
:104740007B6106E07B689B8A9BB21A467B691340BB
:104750007B617B881B0A9BB2FB600122FB6802FA2B
:1047600003F3FB607B681B889BB21A46FB6813400F
:10477000FB607B69002B05D0FB68002B02D0012376
:10478000FB7401E00023FB74FB7C18461C37BD461C
:104790005DF8047B704780B485B000AF78600B464D
:1047A0007B800023FB810023BB817B881B0AFB816C
:1047B000FB89012202FA03F3BB81BB89DB439AB276
:1047C0007B681A8000BF1437BD465DF8047B7047D4
:1047D00080B485B000AF78607B689B8CFB81FA89E0
:1047E0007B68B3F970309BB2D31A9BB2FB81B7F9E7
:1047F0000E30002B01DA002309E07B68B3F9743036
:10480000B7F90E209A4201DB002300E0012318468D
:104810001437BD465DF8047B704780B485B000AFA7
:1048200078607B68DB8CFB81FA897B68B3F9723036
:104830009BB2D31A9BB2FB81B7F90E30002B01DA81
:10484000002309E07B68B3F97630B7F90E209A426D
:1048500001DB002300E0012318461437BD465DF854
:10486000047B704780B487B000AFF860B960114630
:104870001A460B46FB801346BB80FB681B88FB82F5
:10488000BB681B88BB82B7F91620B7F904309A427F
:1048900001DB00231AE0B7F91420B7F906309A4279
:1048A00001DC002312E0B7F91620B7F906309A426E
:1048B00002DAFB68FA881A80B7F91420B7F90430D5
:1048C0009A4202DDBB68BA881A80012318461C3759
:1048D000BD465DF8047B704780B582B000AF78605C
:1048E0007868FFF775FF0346002B01D1002308E02D
:1048F0007868FFF792FF0346002B01D1002300E008
:10490000012318460837BD4680BD000090B585B02C
:1049100000AF78607B6800221A867B68B3F92E307E
:10492000032B00F26D8101A252F823F03D490008EB
:10493000E3490008894A0008454B00087868FFF7FA
:104940006CFF0346002B01D100235AE17B68B3F9C9
:104950002430FB81B7F90E30BB817B68B3F92C3072
:104960009AB2B7F90C309BB213449BB21BB2BB8115
:104970007B68B3F970407B68B3F970309AB27B689A
:10498000B3F974309BB213449BB21BB207F10C0114
:1049900007F10E002246FFF765FF0346002B01D109
:1049A00000232EE1B7F90E309AB27B68B3F92430B8
:1049B0009BB2D31A9BB21AB27B681A86B7F90E2043
:1049C0007B689A84B7F90C309AB2B7F90E309BB273
:1049D000D31A9BB21BB2BB81B7F90C207B689A85B6
:1049E0000EE17868FFF7F4FE0346002B01D10023A7
:1049F00007E17B68B3F92630FB81B7F90E30BB8144
:104A00007B68B3F92C309AB2B7F90C309BB21344DF
:104A10009BB21BB2BB817B68B3F972407B68B3F970
:104A200072309AB27B68B3F976309BB213449BB272
:104A30001BB207F10C0107F10E002246FFF712FF2F
:104A40000346002B01D10023DBE0B7F90E309AB208
:104A50007B68B3F926309BB2D31A9BB21AB27B683B
:104A60001A86B7F90E207B68DA84B7F90C309AB24F
:104A7000B7F90E309BB2D31A9BB21BB2BB81B7F908
:104A80000C207B689A85BBE07868FFF7C6FE03467A
:104A9000002B01D10023B4E07B68B3F92430BB8143
:104AA000B7F90C309BB201339BB21BB2BB81B7F993
:104AB0000C30FB81B7F90E309AB27B68B3F92C3019
:104AC0009BB2D31A9BB21BB2FB817B68B3F97040D7
:104AD0007B68B3F970309AB27B68B3F974309BB2DB
:104AE00013449BB21BB207F10C0107F10E002246E2
:104AF000FFF7B8FE0346002B01D1002381E0B7F990
:104B00000C309AB2B7F90E309BB2D31A9BB21AB2DC
:104B10007B689A85B7F90C309BB2013B9BB21BB204
:104B2000BB817B68B3F924309AB2B7F90C309BB2E1
:104B3000D31A9BB21AB27B681A86B7F90C207B682D
:104B40009A845DE07868FFF743FE0346002B01D1AD
:104B5000002356E07B68B3F92630BB81B7F90C30EF
:104B60009BB201339BB21BB2BB81B7F90C30FB8106
:104B7000B7F90E309AB27B68B3F92C309BB2D31AD6
:104B80009BB21BB2FB817B68B3F972407B68B3F9BF
:104B900072309AB27B68B3F976309BB213449BB201
:104BA0001BB207F10C0107F10E002246FFF75AFE77
:104BB0000346002B01D1002323E0B7F90C309AB251
:104BC000B7F90E309BB2D31A9BB21AB27B689A85A2
:104BD000B7F90C309BB2013B9BB21BB2BB817B6827
:104BE000B3F926309AB2B7F90C309BB2D31A9BB204
:104BF0001AB27B681A86B7F90C207B68DA8400BF8A
:104C0000012318461437BD4690BD00BF80B584B05F
:104C100000AF78607868FFF779FE0346002B01D17A
:104C2000002319E00023FB7312E07B6803F14601C7
:104C3000FA7B1346DB009B1A5B00CA187B68B3F94A
:104C4000303019461046FDF74FFEFB7B0133FB73F6
:104C5000FB7B022BE9D9012318461037BD4680BDE6
:104C600090B583B000AF78607B6893F8AF3003F005
:104C70000803002B06D07B68DC69002300220B218F
:104C80007868A0477B6893F8AF3023F00803DAB266
:104C90007B6883F8AF2000BF0C37BD4690BD90B550
:104CA00085B000AF78600B467B8013463B807B88E5
:104CB0003B813B887B817868FFF7D2FF7B680022CD
:104CC00083F8AE207B68DC6907F1080300220A2123
:104CD0007868A0470346FB81B7F90E30002B08D057
:104CE0007B6893F8AF3043F00803DAB27B6883F84F
:104CF000AF20B7F90E3018461437BD4690BD90B5B9
:104D000083B000AF7860084611461A460346FB7030
:104D10000B46BB7013467B70FB78002B31D17B6850
:104D200093F8AE20BB781340DBB2002B08D07B6831
:104D300093F8AF20BB781340DBB2BA789A424BD1DC
:104D40007B68DC697B7819B2FB789AB200237868BB
:104D5000A0477B6893F8AF305AB297F90230DB4333
:104D60005BB213405BB2DAB27B6883F8AF207B683A
:104D700093F8AE20BB781343DAB27B6883F8AE2099
:104D80002AE07B6893F8AE20BB781340DBB2002B9F
:104D900007D07B6893F8AF20BB781340DBB2002BC1
:104DA0001AD17B68DC697B7819B2FB789AB2002350
:104DB0007868A0477B6893F8AF20BB781343DAB2DA
:104DC0007B6883F8AF207B6893F8AE20BB781343F1
:104DD000DAB27B6883F8AE2000BF0C37BD4690BDC9
:104DE00080B582B000AF78600B46FB70F9780D2378
:104DF00004227868FFF783FF00BF0837BD4680BDF7
:104E000080B582B000AF78600B46FB70F9780E2356
:104E100002227868FFF773FF00BF0837BD4680BDE8
:104E200080B582B000AF78600B46FB70F9780F2335
:104E300001227868FFF763FF00BF0837BD4680BDD9
:104E400090B583B000AF78600B467B807B68DC69EF
:104E50007A8800230C217868A04700BF0C37BD4634
:104E600090BD80B582B000AF78600B467B8007E0D4
:104E70004FF47A717868FFF7E3FF7B88013B7B8012
:104E80007B88002BF4D100BF0837BD4680BD90B5AC
:104E900083B000AF78600B46FB707B68DC69FB7801
:104EA0009AB2002310217868A04700BF0C37BD4696
:104EB00090BD90B587B000AFF8600B467A607B81FB
:104EC00010E07B681B78FB75FB68DC69FB7D9AB2A0
:104ED00000231021F868A0477B6801337B607B8941
:104EE000013B7B817B89002BEBD100BF1C37BD468A
:104EF00090BD80B584B000AFF860B96011461A4625
:104F00000B46FB711346BB71FB6893F8B0305B082E
:104F1000DBB203F00103DBB21946F868FFF780FF4C
:104F2000FB799BB2BA681946F868FFF7C2FFBB79F4
:104F3000002B14D0FB79BA681344BB60FB6893F86C
:104F4000B03003F00103DBB21946F868FFF768FFE1
:104F5000BB799BB2BA681946F868FFF7AAFF00BF91
:104F60001037BD4680BD000080B584B000AF7860CA
:104F700039603B681B78FB73FB7B1B09BB73FB7BB6
:104F800003F00F037B73BB7B0F2B00F2248101A284
:104F900052F823F0D7510008D54F0008D54F00082C
:104FA000D54F0008D7510008D7510008F54F000829
:104FB000275000086B50000897500008C3500008A5
:104FC00023510008D7510008D7510008D7510008D5
:104FD000835100083B68591C7B7BBA7B7868FFF7DC
:104FE00088FFBB7B5A1C7B7B13441A463B681344E7
:104FF0003B60EFE07B6893F8B03003F00103DBB275
:1050000019467868FFF70CFF7B7B99B23B68013348
:105010001A467868FFF74DFF7B7B01331A463B68E1
:1050200013443B60D6E07B6893F8B0305B08DBB29A
:1050300003F00103002B0CBF01230023DBB2194650
:105040007868FFF7EDFE7B7B002B07D07B7B99B266
:105050003B6801331A467868FFF72BFF7B7B0133EF
:105060001A463B6813443B60B4E03B6801333B6045
:105070003B681B78FB737B7B9BB21B029AB2FB7B6A
:105080009BB213449BB219467868FFF7EAFE3B686F
:1050900001333B609EE03B6801333B603B681B781B
:1050A000FB737B7B9BB21B029AB2FB7B9BB21344CC
:1050B0009BB219467868FFF7C3FE3B6801333B603B
:1050C00088E03B6801333B603B681B78FB733B68BF
:1050D00001333B603B681B783B733B6801333B60AB
:1050E0007B6893F8B03003F00103DBB219467868AF
:1050F000FFF796FE7B68B3F924301A467B68B3F954
:1051000020301A447B7B42FA03F3DAB2FB7B134074
:10511000DAB23B7B1343DBB219467868FFF7B7FE80
:1051200058E03B6801333B603B681B78FB733B688E
:1051300001333B603B681B783B733B6801333B604A
:105140007B6893F8B03003F00103DBB2194678684E
:10515000FFF766FE7B68B3F926301A467B68B3F921
:1051600022301A447B7B42FA03F3DAB2FB7B134012
:10517000DAB23B7B1343DBB219467868FFF787FE50
:1051800028E07B7B9B08BB737B7B03F003037B7373
:10519000BB7B012B0CD0032B13D0002B16D17B7BB8
:1051A00003F00103DBB219467868FFF719FE0DE042
:1051B0007B7B03F00103DBB219467868FFF720FE22
:1051C00004E07B687A7B83F8B02000BF3B68013342
:1051D0003B6000BFCDE600BF1037BD4680BD00BFBD
:1051E0000EB400B59CB01DAB029006906FF000416C
:1051F000094807910491094953F8042B0591006867
:10520000019302A900F0A0F9029B00221A701CB0C1
:105210005DF804EB03B07047E80500200802FFFFCB
:1052200002440346934200D1704703F8011BF9E79B
:10523000014B1868704700BFE805002070B50D4DA0
:105240000D4C641BA4100026A64209D10B4D0C4C3A
:1052500000F06AFC641BA4100026A64205D170BDB4
:1052600055F8043B98470136EEE755F8043B98475C
:105270000136F2E794610008946100089461000827
:1052800098610008704770470A44914200F1FF336B
:1052900000D1704710B511F8014B03F8014F91424E
:1052A000F9D110BD37B5002944D051F8043C019024
:1052B000002BA1F10404B8BFE41800F0DFF81E4A87
:1052C0000198136833B96360146003B0BDE83040DF
:1052D00000F0DAB8A34208D9256861198B4201BFF2
:1052E00019685B6849192160EDE71A465B680BB1E4
:1052F000A342FAD911685518A5420BD1246821445C
:105300005418A3421160E0D11C685B6853600C44E0
:105310001460DAE702D90C230360D6E72568611927
:105320008B4204BF19685B68636004BF4919216040
:105330005460CAE703B030BDC41E002070B50E4EE5
:105340000C463168054611B900F0A6FB30602146D5
:10535000284600F0A1FB431C0AD0C41C24F003041F
:10536000A04207D0211A284600F096FB013001D157
:105370004FF0FF34204670BDC81E00202DE9F843D1
:10538000CD1C25F0030508350C2D38BF0C25002D4C
:10539000074601DBA94205D90C233B6000263046B5
:1053A000BDE8F883DFF8D08000F068F8D8F8003066
:1053B0001C465CBB29463846FFF7C0FF431C044629
:1053C00055D1D8F800402646002E45D1002C48D0B3
:1053D00023683146384604EB030900F05DFB814544
:1053E0003FD121686D1A29463846FFF7A7FF0130E3
:1053F00037D023682B442360D8F80030002B38D0F6
:105400005A68A2422BD100225A600FE02268521B38
:105410001FD40B2A17D96119A342256018BF596000
:10542000636808BFC8F8001062514B60384604F149
:105430000B0600F029F826F00706231DF21AAED05D
:105440009B1BA350ABE7A3426268DDD1C8F80020E4
:10545000ECE723466468ACE734467668B4E7134665
:10546000CCE70C233B60384600F00EF897E7256048
:10547000DCE75B60FFDE00BFC41E00200148FFF7D1
:1054800001BF00BFC01E00200148FFF7FCBE00BFE7
:10549000C01E00202DE9F0478E681F46BE420B68F3
:1054A00082460C4690462CD88A8912F4906F26D0FA
:1054B0006569096905EB4505A3EB010905EBD575A0
:1054C0007B1C4B446D109D4238BF1D46530527D5AC
:1054D0002946FFF753FF064660B321694A46FFF7A6
:1054E000D3FEA38923F4906343F08003A381266154
:1054F00065614E44A5EB09052660A5603E46BE42A7
:1055000000D93E4620683246414600F0ABFAA36817
:105510009B1BA3602368334423600020BDE8F08711
:105520002A4600F0C9FA06460028E0D12169504613
:10553000FFF7B8FE0C23CAF80030A38943F04003FC
:10554000A3814FF0FF30E9E72DE9F04F98468B89B2
:105550001B069DB007460D4614460ED50B6963B970
:105560004021FFF70BFF2860286120B90C233B6026
:105570004FF0FF30D0E040236B61002309932023DC
:105580008DF82930CDF80C803023DFF8A4818DF818
:105590002A304FF0010923469A4613F8012B0AB12D
:1055A000252AF9D1BAEB040B0BD05B4622462946DB
:1055B0003846FFF76FFF013000F0A980099A5A447E
:1055C00009929AF80030002B00F0A18000234FF0E0
:1055D000FF32CDE905230AF1010A049307938DF800
:1055E00053301A935446052214F8011B5048FAF719
:1055F000F7FD049AD8B9D00644BF20238DF8533064
:10560000110744BF2B238DF853309AF800302A2B12
:1056100015D0079A544600204FF00A0C214611F885
:10562000013B303B092B4DD9B0B1079214E0A0EB00
:10563000080309FA03F313430493A246D2E7039B3A
:10564000191D1B680391002BBBBF5B4242F0020295
:1056500007930793B8BF049223782E2B0CD163785D
:105660002A2B34D1039B1A1D1B680392002BB8BF51
:105670004FF0FF3302340593DFF8C4A021780322F2
:105680005046FAF7ADFD38B1049BA0EB0A0040226A
:10569000824013430134049314F8011B25488DF80C
:1056A00028100622FAF79CFD002838D0224B1BBB9D
:1056B000039B073323F0070308330393099B334409
:1056C000099368E70CFB02320C460120A6E7002391
:1056D0000134059319464FF00A0C204610F8012BAF
:1056E000303A092A03D9002BC6D00591C4E70CFB38
:1056F000012104460123F0E703AB00932A460F4B38
:1057000004A93846AFF30080421C0646D6D1AB89C7
:105710005B063FF52DAF09981DB0BDE8F08F03ABD8
:1057200000932A46054B04A9384600F079F8EBE7C8
:10573000616100086B6100080000000095540008DA
:10574000676100082DE9F047164699468A680B699B
:10575000DDF820809342B8BF1346336091F84320B0
:1057600007460C460AB1013333602368990642BFED
:10577000336802333360256815F0060506D104F15D
:10578000190AE36832689B1AAB4226DC94F843207E
:10579000131E226818BF012392062BD404F1430282
:1057A00049463846C04701301ED02368226903F0BD
:1057B0000603042B02BFE5683368ED1AA3680CBF2B
:1057C00025EAE57500259342C4BF9B1AED18002613
:1057D0001A34B5421AD1002008E001235246494646
:1057E0003846C047013003D14FF0FF30BDE8F087A5
:1057F0000135C6E7E1185A1C302081F843002244E5
:1058000094F8451082F843100233C7E7012322467B
:1058100049463846C0470130E6D00136D9E7000096
:105820002DE9FF470F7E0C9D782F914680460C4650
:105830009A4601F1430207D8622F0AD8002F00F0E0
:10584000D480582F00F0C08004F1420584F84270E3
:105850003AE0A7F16303152BF6D801A151F823F024
:10586000B9580008CD5800084958000849580008A0
:105870004958000849580008CD5800084958000800
:10588000495800084958000849580008D1590008EB
:10589000F95800088B590008495800084958000871
:1058A000F359000849580008F958000849580008F9
:1058B00049580008935900082B681A1D1B682A6074
:1058C00004F1420584F8423001239FE020682B68F0
:1058D000070603F10401296001D51E6803E04606AE
:1058E000FBD5B3F90060002E03DA2D23764284F84D
:1058F00043305A480A2312E02B682068191D29609A
:10590000050601D51E6802E04106FBD51E885348F6
:105910006F2F0CBF08230A23002184F84310656809
:10592000A560002DA2BF216821F0040121600EB9FD
:10593000002D4BD01546B6FBF3F103FB1167C75D95
:1059400005F8017D3746BB420E46F4D9082B0BD132
:105950002368DE0708D5236961689942DEBF3023DA
:1059600005F8013C05F1FF35521B2261CDF800A07E
:105970004B4603AA21464046FFF7E4FE01304AD1D8
:105980004FF0FF3004B0BDE8F087236843F02003F8
:1059900023603348782784F84570236829681F06F8
:1059A00051F8046B02D45F0648BFB6B2DF0748BFA8
:1059B00043F02003296048BF23601EB9236823F009
:1059C000200323601023A7E72448E4E71546BDE73A
:1059D0002B6826686169181D286035061B6801D58B
:1059E000196002E07006FBD519800023236115467B
:1059F000BCE72B681A1D2A601D68626800212846D2
:105A0000FAF7EEFB08B1401B606063682361002376
:105A100084F84330AAE723692A4649464046D047DE
:105A20000130ADD023689B0713D4E068039B9842F4
:105A3000B8BF1846A6E70123324649464046D0473C
:105A400001309DD00135E36803995B1AAB42F2DC6B
:105A5000EBE7002504F11906F5E700BF72610008C5
:105A600083610008884210B501EB020402D9844228
:105A7000234607D8431EA14208D011F8012B03F892
:105A8000012FF8E7024401468A4200D110BD13F805
:105A9000014D02F8014DF7E738B5064D00230446E5
:105AA00008462B60FBF70EFD431C02D12B6803B1A7
:105AB000236038BDBC1E00202DE9F041804614460D
:105AC0000E4621B9BDE8F0411146FFF757BC2AB98F
:105AD000FFF7E8FB25462846BDE8F08100F01BF8FB
